:020000040000fa
:080000000002040000000000f2
:020000040000fa
:10000800f2020000f2020000f2020000f202000018
:10001800f2020000f2020000f2020000f202000008
:10002800f2020000f2020000f2020000fa2d0000c5
:10003800f2020000f2020000f2020000f2020000e8
:10004800f2020000f2020000f2020000f2020000d8
:10005800f2020000f2020000f2020000f2020000c8
:10006800f2020000f2020000f2020000f2020000b8
:10007800f2020000f2020000f2020000f2020000a8
:10008800f2020000f2020000f2020000f202000098
:10009800f2020000f2020000f2020000f202000088
:1000a800f2020000f2020000f2020000f202000078
:1000b800f2020000f2020000f2020000f202000068
:1000c800f2020000f2020000f2020000f202000058
:1000d800f2020000f2020000f2020000f202000048
:1000e800f2020000f2020000f2020000f202000038
:1000f800f2020000f2020000f2020000f202000028
:10010800f2020000f2020000f2020000f202000017
:10011800f2020000f2020000f2020000f202000007
:10012800f2020000f2020000f2020000f2020000f7
:10013800f2020000f2020000f2020000f2020000e7
:10014800f2020000f2020000f2020000f2020000d7
:10015800f2020000f2020000f2020000f2020000c7
:10016800f2020000f2020000f2020000f2020000b7
:10017800f2020000f2020000f2020000f2020000a7
:10018800f2020000f2020000f2020000f202000097
:10019800f2020000f2020000f2020000f202000087
:1001a800f2020000f2020000f2020000f202000077
:1001b800be2c0000f2020000f2020000f202000071
:1001c800f2020000f2020000f2020000f202000057
:1001d800f2020000f2020000f2020000f202000047
:1001e800f2020000f2020000f2020000f202000037
:0801f800f2020000f202000017
:020000040000fa
:10020800f2020000f2020000f2020000f202000016
:10021800f2020000f2020000f2020000f202000006
:10022800f2020000f2020000f2020000fa2d0000c3
:10023800f2020000f2020000f2020000f2020000e6
:10024800f2020000f2020000f2020000f2020000d6
:10025800f2020000f2020000f2020000f2020000c6
:10026800f2020000f2020000f2020000f2020000b6
:10027800f2020000f2020000f2020000f2020000a6
:10028800f2020000f2020000f2020000f202000096
:10029800f2020000f2020000f2020000f202000086
:1002a800f2020000f2020000f2020000f202000076
:1002b800f2020000f2020000f2020000f202000066
:1002c800f2020000f2020000f2020000f202000056
:1002d800f2020000f2020000f2020000f202000046
:1002e800f2020000f2020000f2020000f202000036
:1002f800f2020000f2020000f2020000f202000026
:10030800f2020000f2020000f2020000f202000015
:10031800f2020000f2020000f2020000f202000005
:10032800f2020000f2020000f2020000f2020000f5
:10033800f2020000f2020000f2020000f2020000e5
:10034800f2020000f2020000f2020000f2020000d5
:10035800f2020000f2020000f2020000f2020000c5
:10036800f2020000f2020000f2020000f2020000b5
:10037800f2020000f2020000f2020000f2020000a5
:10038800f2020000f2020000f2020000f202000095
:10039800f2020000f2020000f2020000f202000085
:1003a800f2020000f2020000f2020000f202000075
:1003b800be2c0000f2020000f2020000f20200006f
:1003c800f2020000f2020000f2020000f202000055
:1003d800f2020000f2020000f2020000f202000045
:1003e800f2020000f2020000f2020000f202000035
:0803f800f2020000f202000015
:020000040000fa
:100400006f492100cea822000e01880000000000e4
:10041000000020000000e000020032000001200087
:10042000200288000c000700a082200001002000ac
:100430000f000700000020000000e0000200320072
:100440000000020000000000e03102000000000097
:100450000040da000000fe00800320000000e00001
:1004600002003200002020009001880000000600f9
:10047000a1028800800078000000eb001a0037001d
:10048000e280400054a0b4009101ba00e280400034
:1004900054a0b4009102ba00e280400054a0b4001d
:1004a0000002eb00472bde00f507b200a601880032
:1004b000602ce10008003a000049eb000201e8006e
:1004c000020039003420ec0002f0a0008301e900b2
:1004d000f9ff3e00040037006128e100010032000e
:1004e0000082eb00040007001101ba000200e000e6
:1004f000e3ff3a000000060004d0a300e20f490029
:100500001c003900810278003549ba000201e80078
:10051000020039003420ec0002f0a0008301e90061
:100520000f0032002549ba000201e800020039003c
:100530003420ec0002f0a0008301e9000800320042
:100540000400e0000600320015c9ba000201e8000c
:10055000020039003420ec0002f0a0008301e90021
:100560008180e80054a0b4000300e000e2ff3a00fc
:10057000000006009102ba00055978008301e900e5
:10058000f7ff3200c82ade00055978008301e90030
:10059000f3ff32000400e000f1ff320011d9ba008d
:1005a000eeff37004a290400000000006a2c040016
:1005b000000000008c2f040000000000762e0400d4
:1005c00000000000a22c04000000000066290400c6
:1005d00000000000862c040000000000b42f04007e
:1005e000000000000040da000000fe00889fbe000e
:1005f0008a9fbe008c1f7800970007009e00330082
:1006000003866c006450e1002e0032006420e1009b
:10061000330032006150e1002f0032006120e10020
:100620003100320085855500eb07b000090020003d
:1006300008042000050037000804440089844c00a9
:100640000a0031000603430087834b00000153007a
:1006500081815b00f8ff33000203be000800a000a8
:100660000804440089844c00f6ff3900c639dd00d7
:100670008301730001003200130020008904d100bf
:100680000884d3000998a300050032000800a700e1
:100690000300a0008904d1000884d3008b05e80082
:1006a0008904d1000884d3000001eb000281d2004c
:1006b0002e00070001f0a1000cf0a70001f0a0003f
:1006c000760037006420e100780032000801be00a7
:1006d0000200be00f7ff37006120e1007300320026
:1006e0006000b800f3ff37000000200001f8270089
:1006f000f0ff37000001be00420007000470a700b1
:1007000003f0a10003f8a30013003a006509b1004b
:1007100010003200090035006928e10002003500b0
:100720000100280000000500000040008180480012
:100730008502e900fcff3a0000000600f88f420045
:10074000050035008100d1000080d3008502e8005b
:10075000fcff3a00000006008000eb0000000500ee
:100760004f89de0082017800890037008100200077
:10077000618055000b003d000b00200061fe2f0042
:100780000100e1001d0034008281710061016400fc
:100790008904d1000884d3000000e800faff3a0081
:1007a000710020006100640003007000020060001e
:1007b0000900320061044400e0844c000988a5006f
:1007c000050032008b05e8006808e10002003a00ed
:1007d0008904d1000884d300f20f20000258e10000
:1007e00005003d00c75ddd00f907b2008980750096
:1007f00008007800000006000bf827008b00780046
:1008000000000500c70ade00f107b200f50fb200d4
:1008100008003200e1cf4200020032000170a00067
:1008200024000500810f700001003200040805005b
:1008300044000500810f700002003a00140005001a
:100840008502e9000000400081c04800fcff3b0039
:100850000170a000240005000004be00e9ff0700ad
:100860000003be000405be000200be00e5ff070055
:10087000844f7500000006000200be006450e100d5
:10088000050036006420e100020036000968a3007c
:1008900001003a000800be000160a0004f06780089
:1008a0004f05be004f04be0000000600f0ff2f0001
:1008b000f1ff2700f9ff3700889fbe008a9fbe0026
:1008c0008c1f7800e4ff0700ebff330003866c0009
:1008d0006450e100240032006420e100270032006f
:1008e0006150e100220032006120e100210032006d
:1008f0008b854200eb07b1000134b800003ab80024
:100900000804420089844a00013ab8000030b80067
:100910008880400009014a000400330000004000c4
:1009200081804800020149008b05e900c909dd000a
:10093000830170000100320013002000c814de00a3
:100940004814dd004709de001200b200c808de00ce
:100950000884700085ff070001f0a1000cf0a700db
:1009600001f0a000cdff37006120e100cfff320091
:100970000801be000200be00f7ff37006150e10031
:10098000fcff3a00c9ff37000001eb003f003700d1
:10099000881f7800030478000300e00007003d0092
:1009a00060001000e080180060011900e08119006b
:1009b00002003b0001f02d00030037000400070097
:1009c00008f0a70001f0a0004f0478000000060026
:1009d000889fbe008a9fbe000082700004027100e2
:1009e00004827100260032000004be000200be0036
:1009f0006011b8006b092000950220000182cf0031
:100a00000a0039000541b1000082cf00070039001b
:100a10000541b1000982cf00040039000541b10051
:100a20000882cf00010039000541b10005425200a3
:100a3000120032000a003b008281710061016400f3
:100a40008100d1000080d3008984d3000884d300c2
:100a50008b05e8000442e800f7ff3a000700370082
:100a60000804440089844c0000004800818048004c
:100a70008b05e9000442e900f9ff3a003bff07005b
:100a80004f05be004f04be0000000600889fbe0058
:100a90008a9fbe008c9fbe00820578000004be00c5
:100aa00058ff07000800be006420e100070039007d
:100ab00002003a00f1ff2700f0ff2f000160a000c4
:100ac0001202200002408800550037006120e1003a
:100ad00003003a000b00a70001f823005000370084
:100ae00001f0a1000200210093642400ae00070081
:100af0000800be0004003500b2fd2000930c240065
:100b0000cc0007000004be000005eb000b00a600af
:100b10004f0dde0001f0a1000004be0032982f004e
:100b200023ea230064ff07000001eb0003f0230029
:100b30000b00a70003f823003e0007009c000700fd
:100b40000000a7000a00a20005ff07000b00e0005c
:100b5000030032000200200003f0230034000700ed
:100b600001f0a2000006be00020020009304240051
:100b700051ff07000801be002e000700809fbe0045
:100b80000c00be0022a22a00d3a723004aff0700c0
:100b90004f01be00270007000004be0001f0a100c5
:100ba00002002000039823007f0007000800be0019
:100bb000190035000001be003fff07000006be001f
:100bc000b2c52900e36223003bff070022222b006d
:100bd000f3942b00170007000c01be0036ff07003e
:100be000e273280083c02300120007000c01be003e
:100bf00031ff070042aa2a00a3e22b000d000700e4
:100c00000c01be002cff07000801be002aff0700f0
:100c10000801be00070007000a00a70001f0a200bb
:100c20004f06be004f05be004f04be000000060088
:100c300003f0a200889fbe008a9fbe008c1f780030
:100c400005ff07000cff33006450e1004f00320045
:100c50006420e1005200320003826c0007003b0078
:100c60000905d0000306d000820f54000c065d0079
:100c70000200390002003200890178000306780082
:100c80008582550004003d000003fd008103fd0046
:100c90008502ea008b854200840f720002003b004f
:100ca00060001000e08018006011b8000005eb0043
:100cb0007a28e1000a00390006007800c75ddd00ef
:100cc000f707b200878075002d0037008281710020
:100cd0000a017800610560008180d1000080d300a6
:100ce0008502e900f9ff3b000604400087844800c4
:100cf00002003b0060041400e0841c000988a3008b
:100d0000070032008a8171008281710061016400f4
:100d10008904d1000884d3008b05e8001700370050
:100d20000978a30013003a000b00e0001300340020
:100d30008b05e9000804440089844c000a447400cf
:100d40000978a3000d003a000b00e0000700340012
:100d50008b05e9000804440089844c0001003a0036
:100d60000b0020000978a300f7ff32000001eb0020
:100d700002003700828171000a0178007bfe0700c3
:100d80000cf0a70001f0a000c4fe37006420e100d1
:100d900002003a00838f6c00c4fe33000801be00dd
:100da0000200be00bdfe37001400200072003700b4
:100db0000001be0093fe07000470a70003f0a1002d
:100dc0006509b100160032000d0035006828e10009
:100dd00006003500f0ff2f00f1ff27000300e000c0
:100de00013003b0001002800000005000000400047
:100df000818048008502e900fcff3a0008003700c6
:100e0000f88f420002003c008000eb00000005006b
:100e10008100d1000080d3008502e800fcff3a0089
:100e20000300e00002003b0060001000e0801800ba
:100e3000000006000400200000003700889fbe006c
:100e40008a9fbe008c1f78004f26dd0082fe0700bf
:100e500089fe33006120e100430032006250e1006e
:100e600041003e003e0039006420e1003c003200b9
:100e7000058255000f003b000402e80038003a00ec
:100e8000800f5300818f5b00350034000800be00e6
:100e900003f0a10001f0a60003f0a0000cf0a700f1
:100ea00064ff07007dfe37000603430087834b0085
:100eb0000c4646000005530081855b0002003300ac
:100ec0000a03be000c00a0000402e900f6ff3b008c
:100ed000850578000602430087824b0004003a0033
:100ee0006000b80009f0a70001f0a0006bfe370019
:100ef0000002520081825a000704e000040033001f
:100f00000603430087834b008b05e900faff370097
:100f1000090578000604be000203be006011b80097
:100f200012fe0700e00f5200e08f5a000700350064
:100f300002003c000c08a300040032000601be00c1
:100f400003f0a0000cf0a7003aff07000a85680034
:100f500001f0a1000af0a70001f0a0004ffe370049
:100f60000800be004dfe3700100220000cf0a60065
:100f7000004088004dfe3700889fbe008a9fbe005b
:100f8000841f780034fe07004f0078001100330002
:100f9000f0ff2f00838f6c0006003b000405650006
:100fa0000a00a7000800370009f0a6001000200082
:100fb00008003700820f5400838f5c000300390063
:100fc0001000200001003e000000200009f0a700f2
:100fd0000000ea004f05be004f04be000000e00024
:040fe0000000060007
:020000040000fa
:100fe4006a2c00008c2f0000762e00004a29000095
:100ff4004a290000d007000000000000a22c0000d5
:1010040066290000762e00004a2900004a290000c3
:101014000100000000000000862c0000b42f000036
:10102400762e00004a2900004a290000d00700005b
:1010340000000000a22c000066290000762e0000ab
:101044004a2900004a290000640000000000000052
:020000040000fa
:101054007c1400001a000000820000000800200038
:101064000008000020000a00000500000a0000003b
:101074005c00000000f20100004a29004a29000037
:10108400020800007a0c0000800000009c2a000086
:10109400643100008200000000002000007e000097
:1010a4002b001400840100001405020000148600c3
:1010b4000200140007030000148803000014090050
:1010c400040014008a040000140b050000148c00b2
:1010d400050014000d060000148e060000140f0015
:1010e4000700140090070000141108000014920077
:1010f40008001400130900001494090000141500da
:101104000a001400960a000014170b00001498003b
:101114000b001400190c0000149a0c0000141b009e
:101124000d0014009c0d0000141d0e0000149e0000
:101134000e0014001f0f000014a00f000014210063
:1011440010001400a2100000142311000014a400c5
:10115400110015002512000014a612000014270027
:1011640013001400a8130000142914000014aa008a
:10117400140014002b15000014ac150000142d00ed
:1011840016001400ae160000142f17000014b0004f
:10119400170014003118000014b2180000143300b2
:1011a40019001400b419000014351a000014b60014
:1011b4001a001400371b000014b81b000014390077
:1011c4001c001500ba1c0000143b1d000014bc00d8
:1011d4001d0014003d1e000014be1e0000143f003c
:1011e4001f001400c01f0000144120000014c2009e
:1011f400200014004321000014c421000014450001
:1012040022001400c6220000144723000014c80062
:10121400230014004924000014ca240000144b00c5
:1012240025001400cc250000144d26000014ce0027
:10123400260014004f27000014d02700001451008a
:1012440028001400d2280000145329000014d400ec
:1012540029001400552a000014d62a00001457004f
:101264002b001400d82b000014592c000014da00b1
:101274002c0014005b2d000014dc2d0000145d0014
:101284002e001400de2e0000145f2f000014e00076
:101294002f0014006130000014e230000000000050
:1012a400000000000000000000000000000000003a
:1012b400000000000000000000000000000000002a
:1012c400000000000000000000000000000000001a
:1012d400000000000000000000000000000000000a
:1012e40000000000000000000000000000000000fa
:1012f40000000000000000000000000000000000ea
:1013040000000000000000000000000000000000d9
:1013140000000000000000000000000000000000c9
:1013240000000000000000000000000000000000b9
:1013340000000000000000000000000000000000a9
:101344000000000000000000000000000000000099
:101354000000000000000000000000000000000089
:101364000000000000000000000000000000000079
:101374000000000000000f0000000f0000000f003c
:1013840000000f0000000f0000000f0000000f001d
:1013940000000f0000000f0000000f0000000f000d
:1013a40000000f0000000f0000000f0000000f00fd
:1013b40000000f0000000e00000006000000000006
:1013c4000000000000000e0000001f0000001f00cd
:1013d40000001f0000000e000000000000000000dc
:1013e40000000000000000000000000000000000f9
:1013f40000000000000000000000000000000000e9
:1014040000000000000000000000000000000000d8
:1014140000000000000000000000000000000000c8
:1014240000e0f10000e0f10000e0f10000e0f10074
:1014340000e0f10000e0f10000e0f10000e0f10064
:101444000000000000000000000000000000000098
:101454000000000000000000000000000000000088
:101464000000000000000000000000000000000078
:101474000000000000000000000000000000000068
:101484000000000000000000000000000000000058
:101494000000000000000000000000000000000048
:1014a4000000000000000000000000000000000038
:1014b4000000000000000000000000000000000028
:1014c4000000000000000000000000000000000018
:1014d4000000000000c0e00000c0e00000c0e00028
:1014e40000c0e00000c0e00000c0e00000fcff001d
:1014f40007fcff0007fcff0007e0700000e070003d
:1015040000e07000006070000060700000feff00ea
:1015140003feff0003feff0003607000007038004c
:101524000070380000703800007038000070380017
:1015340000000000000000000000000000000000a7
:101544000000000000000000000000000000000097
:101554000000000000000000000000000000000087
:101564000000000000000000000000000000000077
:101574000000000000000c0000000e0000000e003f
:1015840000c03f0000f07f0000f87f0000784600b4
:10159400001c0600001c0600001c0700003c07009d
:1015a4000078070000f8070000f0070000c01f00e3
:1015b40000007f000000fb000000e3000180c30086
:1015c4000180c3000180c3000180e300018cf300ab
:1015d40000fcff0000fc3f0000f00f0000c0010011
:1015e40000c0010000c0010000c0010000000000b4
:1015f40000000000000000000000000000000000e7
:1016040000000000000000000000000000000000d6
:1016140000000000000000000000000000000000c6
:101624000000000000f000000efc030007fc830033
:10163400039e8700030ec700010ee700000e67003b
:10164400009e770000fc3b0000fc1b0000f01c0027
:1016540000000e0000000700000007000080e30007
:1016640001c0f90007c0f90007e03c000f701c003e
:101674000e701c000e381c000e1c3c000f1cf800e1
:10168400070ef8000707e00001000000000000005a
:101694000000000000000000000000000000000046
:1016a4000000000000000000000000000000000036
:1016b4000000000000000000000000000000000026
:1016c4000000000000000000000000000000000016
:1016d40000c00f0000e01f0000f03f000078780019
:1016e4000038700000387000003870000038700056
:1016f4000078380000f01e0000f00f0000e0070042
:1017040000e0030000f88700033c8700031c8f00ff
:10171400030e9e00030efc00010ef800010ef00003
:10172400011ef000003cf80001fcff0003f89f00dc
:1017340007e007000f0000000000000000000000a8
:101744000000000000000000000000000000000095
:101754000000000000000000000000000000000085
:101764000000000000000000000000000000000075
:1017740000000000000000000000000000000f0056
:1017840000000f0000000f0000000f0000000f0019
:1017940000000f0000000f0000000f000000000018
:1017a4000000000000000000000000000000000035
:1017b4000000000000000000000000000000000025
:1017c4000000000000000000000000000000000015
:1017d4000000000000000000000000000000000005
:1017e40000000000000000000000000000000000f5
:1017f40000000000000000000000000000000000e5
:1018040000000000000000000000000000000000d4
:1018140000000000000000000000000000000000c4
:1018240000000000000020000000700000003800ec
:1018340000001c0000001e0000000f000000070054
:10184400008003000080030000c0010000c001000c
:1018540000c0010000e0000000e0000000e0000023
:1018640000e0000000e0000000e0000000e00000f4
:1018740000e0000000e0000000c0010000c0010022
:1018840000c0010000800300008003000000070086
:1018940000000f0000001e0000001c0000003800c3
:1018a40000007000000020000000000000000000a4
:1018b4000000000000000000000000000000000024
:1018c4000000000000000000000000000000000014
:1018d400002000000070000000e0000000c00100d3
:1018e40000c00300008007000000070000000e0095
:1018f40000000e0000001c0000001c0000001c0082
:1019040000003800000038000000380000003800f3
:1019140000003800000038000000380000003800e3
:101924000000380000001c0000001c0000001c0027
:1019340000000e0000000e000000070000800700f9
:101944000080030000c0010000e0000000700000ff
:101954000020000000000000000000000000000063
:101964000000000000000000000000000000000073
:101974000000000000000000000000000000000063
:1019840000000600000006000000060000108600ab
:101994000078e60001f0f60000c03f0000000e00f1
:1019a40000c01f0000f0f6000078e6000110860079
:1019b4000000060000000600000006000000000011
:1019c4000000000000000000000000000000000013
:1019d4000000000000000000000000000000000003
:1019e40000000000000000000000000000000000f3
:1019f40000000000000000000000000000000000e3
:101a040000000000000000000000000000000000d2
:101a140000000000000000000000000000000000c2
:101a240000000000000000000000000000000000b2
:101a340000000000000000000000000000000000a2
:101a44000000000000000000000007000000070084
:101a54000000070000000700000007000000070066
:101a64000000070000feff0003feff0003feff006e
:101a74000300070000000700000007000000070043
:101a8400000007000000070000000700000000003d
:101a94000000000000000000000000000000000042
:101aa4000000000000000000000000000000000032
:101ab4000000000000000000000000000000000022
:101ac4000000000000000000000000000000000012
:101ad4000000000000000000000000000000000002
:101ae40000000000000000000000000000000000f2
:101af40000000000000000000000000000000000e2
:101b040000000000000000000000000000000000d1
:101b140000000000000000000000000000000000c1
:101b240000000000000000000000070000800f001b
:101b340000801f0000001f0000001f0000001e00a6
:101b440000000f0000800f0000f0070000f0030009
:101b540000f0000000000000000000000000000091
:101b64000000000000000000000000000000000071
:101b74000000000000000000000000000000000061
:101b84000000000000000000000000000000000051
:101b94000000000000000000000000000000000041
:101ba4000000000000000000000000000000000031
:101bb40000000000000000000000000000e0ff0042
:101bc40000e0ff0000e0ff00000000000000000053
:101bd4000000000000000000000000000000000001
:101be40000000000000000000000000000000000f1
:101bf40000000000000000000000000000000000e1
:101c040000000000000000000000000000000000d0
:101c140000000000000000000000000000000000c0
:101c240000000000000000000000000000000000b0
:101c340000000000000000000000000000000000a0
:101c44000000000000000000000000000000000090
:101c54000000000000000000000000000000000080
:101c64000000000000000000000000000000000070
:101c740000000000000000000000000000000f0051
:101c840000801f0000801f0000801f0000801f00d4
:101c940000000f0000000000000000000000000031
:101ca4000000000000000000000000000000000030
:101cb4000000000000000000000000000000000020
:101cc4000000000000000000000000000000000010
:101cd4000000000000000000000000000000c00040
:101ce4000100e0000000e00000006000000070005f
:101cf40000007000000038000000380000001c00e4
:101d040000001c0000001c0000000e0000000e007b
:101d14000000070000000700000007000080030027
:101d24000080030000c0010000c0010000c00000ea
:101d340000e0000000e000000070000000700000ff
:101d4400003800000038000000380000001c0000cb
:101d5400000000000000000000000000000000007f
:101d6400000000000000000000000000000000006f
:101d7400000000000000000000000000000000005f
:101d8400000000000000000000000000000000004f
:101d940000003f0000c07f0000e0ff0001f0e00011
:101da4000178c0000338800003388000031ce00081
:101db400071cf000071c7c00071c3e00079c0f005a
:101dc40007dc070007fc010007fc0000073c80005b
:101dd40007388000033880000378c00003f0e00077
:101de40001e0ff0000c07f0000801f000000000031
:101df40000000000000000000000000000000000df
:101e040000000000000000000000000000000000ce
:101e140000000000000000000000000000000000be
:101e240000000000000000000000000000000000ae
:101e340000000000000000000000000000000f008f
:101e440000c00f0000f80f0000fc0e0000380e0068
:101e540000080e0000000e0000000e0000000e003e
:101e640000000e0000000e0000000e0000000e0036
:101e740000000e0000000e0000000e0000000e0026
:101e840000000e0000000e0000000e0000f8ff002d
:101e940003f8ff0003f8ff00030000000000000047
:101ea400000000000000000000000000000000002e
:101eb400000000000000000000000000000000001e
:101ec400000000000000000000000000000000000e
:101ed40000000000000000000000000000000000fe
:101ee400000000000000000000801f0000e07f00f0
:101ef40000f0ff000078f0000010e0000100c000d6
:101f04000100c0000100c0000100c0000100e000a9
:101f14000000e000000070000000780000003c00b9
:101f240000001e0000000f000080070000c0030036
:101f340000e0010000f0000000f8ff0003f8ff00db
:101f440003f8ff0003000000000000000000000090
:101f5400000000000000000000000000000000007d
:101f6400000000000000000000000000000000006d
:101f7400000000000000000000000000000000005d
:101f8400000000000000000000000000000000004d
:101f94000000000000e00f0000f03f0000f07f00b0
:101fa4000030f8000000e0000000e0000000e00065
:101fb4000000e000000070000000780000c01f0076
:101fc40000c03f0000c07f000000f0000000e000ff
:101fd4000100c0000100c0000100c0000100e000d9
:101fe4000100f00000f87f0000f83f0000f807004f
:101ff40000000000000000000000000000000000dd
:1020040000000000000000000000000000000000cc
:1020140000000000000000000000000000000000bc
:1020240000000000000000000000000000000000ac
:10203400000000000000000000000000000000009c
:1020440000007c0000007c0000007e0000007f0097
:1020540000007700008073000080730000c07100ee
:1020640000e0700000e07000007070000038700044
:1020740000387000001c7000000e700000feff00ad
:1020840007feff0007feff0007007000000070005d
:1020940000007000000070000000700000000000ec
:1020a400000000000000000000000000000000002c
:1020b400000000000000000000000000000000001c
:1020c400000000000000000000000000000000000c
:1020d40000000000000000000000000000000000fc
:1020e40000000000000000000000000000f8ff00f5
:1020f40000f8ff0000f8ff0000380000003800007e
:1021040000380000003800000038000000380000eb
:1021140000f80f0000f83f0000f8ff000000f8008e
:102124000000e0000100c0000100c0000100c00088
:102134000100c0000100e0000000f80000f87f008a
:1021440000f81f0000f80700000000000000000075
:10215400000000000000000000000000000000007b
:10216400000000000000000000000000000000006b
:10217400000000000000000000000000000000005b
:10218400000000000000000000000000000000004b
:1021940000000000000000000000fc000080ff00c0
:1021a40000c0ff0000e0030000f000000078000021
:1021b4000038000000180000001c0000009c3f00d4
:1021c40000fcff0000fcff00017ce000011cc000db
:1021d400031c8000031c8000031c80000338800063
:1021e4000338c00001f8e00001f0ff0000e07f00c8
:1021f40000801f000000000000000000000000003c
:1022040000000000000000000000000000000000ca
:1022140000000000000000000000000000000000ba
:1022240000000000000000000000000000000000aa
:10223400000000000000000000000000000000009a
:102244000000000000fcff0003fcff0003fcff0093
:10225400030080000300c0000100c0000100e00092
:102264000000e00000007000000070000000380072
:1022740000003c0000001c0000001e0000000e00d6
:1022840000000f000000070000800700008003002a
:1022940000c0030000c0010000e0010000e00000f5
:1022a400000000000000000000000000000000002a
:1022b400000000000000000000000000000000001a
:1022c400000000000000000000000000000000000a
:1022d40000000000000000000000000000000000fa
:1022e40000000000000000000000000000000000ea
:1022f40000c01f0000f07f0000f8ff000078f0002d
:10230400011cc000011cc000011cc000013ce00015
:102314000178f00000f8790000e03f0000c01f00e1
:1023240000e03f0000f0fc000078f000003ce0001a
:10233400011cc000011cc000011cc000017cf00095
:1023440001f8ff0000f07f0000c01f000000000043
:102354000000000000000000000000000000000079
:102364000000000000000000000000000000000069
:102374000000000000000000000000000000000059
:102384000000000000000000000000000000000049
:1023940000000000000000000000000000801f009a
:1023a40000e07f0000f0ff000078f0000138c0007a
:1023b400011cc000011c8000031c8000031c800061
:1023c400033c80000378e00003f8ff0003f0ff0003
:1023d40003c09f00030080000300c0000100c00090
:1023e4000100e0000100f00000007c0000f83f0064
:1023f40000f81f0000f803000000000000000000c7
:1024040000000000000000000000000000000000c8
:1024140000000000000000000000000000000000b8
:1024240000000000000000000000000000000000a8
:102434000000000000000000000000000000000098
:102444000000000000000000000000000000000088
:102454000000000000000000000000000000070071
:1024640000800f0000800f0000800f0000000700b4
:102474000000000000000000000000000000000058
:102484000000000000000000000000000000000048
:102494000000070000800f0000800f0000800f0084
:1024a4000000070000000000000000000000000021
:1024b4000000000000000000000000000000000018
:1024c4000000000000000000000000000000000008
:1024d40000000000000000000000000000000000f8
:1024e40000000000000000000000000000000000e8
:1024f40000000000000000000000000000000000d8
:1025040000000000000000000000070000800f0031
:1025140000800f0000800f00000007000000000092
:1025240000000000000000000000000000000000a7
:102534000000000000000000000000000000070090
:1025440000800f0000801f0000001f0000001f001b
:1025540000001e0000000f0000800f0000f00700c4
:1025640000f0030000f00000000000000000000084
:102574000000000000000000000000000000000057
:102584000000000000000000000000000000000047
:102594000000000000000000000000000000000037
:1025a40000000000000000000000000000006000c7
:1025b4000000f0000000780000003c0000001e0055
:1025c40000800f0000c0030000e0010000f00000e4
:1025d400007800000078000000f0000000e0010036
:1025e40000c0030000800f0000001e0000003c003b
:1025f400000078000000f00000006000000000000f
:1026040000000000000000000000000000000000c6
:1026140000000000000000000000000000000000b6
:1026240000000000000000000000000000000000a6
:102634000000000000000000000000000000000096
:102644000000000000000000000000000000000086
:102654000000000000000000000000000000000076
:102664000000000000000000000000000000000066
:1026740000fcff0001fcff0001fcff000100000062
:1026840000000000000000000000000000fcff004b
:1026940001fcff0001fcff0001000000000000003d
:1026a4000000000000000000000000000000000026
:1026b4000000000000000000000000000000000016
:1026c4000000000000000000000000000000000006
:1026d40000000000000000000000000000000000f6
:1026e40000000000000000000000000000000000e6
:1026f40000000000000000000000000000000000d6
:10270400000000000060000000f0000000e0010094
:1027140000c003000080070000001f0000003c0010
:10272400000078000000f0000000e0000100e0007c
:102734000100f0000000780000003c0000001f00d1
:102744000080070000c0030000e0010000f000006a
:102754000060000000000000000000000000000015
:102764000000000000000000000000000000000065
:102774000000000000000000000000000000000055
:102784000000000000000000000000000000000045
:1027940000000000000000000000000000e0010054
:1027a40000e00f0000e01f0000003e000000780081
:1027b4000000f0000000e0000000e0000000e00085
:1027c4000000e0000000f00000807f0000803f0077
:1027d40000800f00008003000080030000800300dd
:1027e40000800300000000000000000000800300df
:1027f40000c0070000c0070000c0070000800300fd
:1028040000000000000000000000000000000000c4
:1028140000000000000000000000000000000000b4
:1028240000000000000000000000000000000000a4
:102834000000000000000000000000000000000094
:10284400000000000000000000003f000080ff00c6
:1028540000e0e100017080000130800003180000f6
:10286400031c0000030c0000060c0000060e7f0091
:1028740006867f0006c67f0006e6710006e3700048
:1028840006e3300006733000067338000673380020
:10289400067338000773380003733c0003f3ff002a
:1028a40003e3f70001c3e300000700000006000093
:1028b40000060000000e0000001c0000003c200088
:1028c40000f83f0000e00f000000000000000000de
:1028d40000000000000000000000000000000000f4
:1028e40000000000000000000000000000000000e4
:1028f40000000000000000000000000000001f00b5
:1029040000001f0000003b0000803b0000803b00f3
:102914000080710000c0710000c0710000c0f000b0
:1029240000e0e00000e0e0000070e0000170c000a2
:102934000170c0000178c00003f8ff0003f8ff0035
:1029440003fcff00071c0000071c0000071e00001a
:102954000f0e00000e0e00000e000000000000002c
:102964000000000000000000000000000000000063
:102974000000000000000000000000000000000053
:102984000000000000000000000000000000000043
:102994000000000000000000000000000000000033
:1029a400000000000000000000f81f0000f87f0095
:1029b40000f8ff000038f0000138c0000138c00002
:1029c4000138c0000138e0000138f00000f87f0051
:1029d40000f87f0000f8ff000038f0000138c00064
:1029e40003388000033880000338800003388000f7
:1029f4000338c0000138e00001f8ff0000f87f0050
:102a040000f81f00000000000000000000000000ab
:102a140000000000000000000000000000000000b2
:102a240000000000000000000000000000000000a2
:102a34000000000000000000000000000000000092
:102a44000000000000000000000000000000000082
:102a5400000000000000fe000080ff0003e0ff0013
:102a640003e0010003f000000078000000380000db
:102a740000380000001c0000001c0000001c0000c6
:102a8400001c0000001c0000001c0000001c0000d2
:102a9400003c0000003800000078000000f800004e
:102aa40000f0010003e0ff0003c0ff000300fe008c
:102ab4000000000000000000000000000000000012
:102ac4000000000000000000000000000000000002
:102ad40000000000000000000000000000000000f2
:102ae40000000000000000000000000000000000e2
:102af40000000000000000000000000000000000d2
:102b040000fc0f0000fc3f0000fc7f00001cf800ec
:102b1400001ce000011cc000011cc000011c80005e
:102b2400031c8000031c8000031c8000031c800025
:102b3400031c8000031c8000031c8000031cc000d5
:102b4400031cc000011ce000011cf000001cf80084
:102b540000fc7f0000fc1f0000fc070000000000d8
:102b64000000000000000000000000000000000061
:102b74000000000000000000000000000000000051
:102b84000000000000000000000000000000000041
:102b94000000000000000000000000000000000031
:102ba40000000000000000000000000000f0ff0032
:102bb40001f0ff0001f0ff00017000000070000050
:102bc4000070000000700000007000000070000041
:102bd40000f0ff0001f0ff0001f0ff0001700000b1
:102be4000070000000700000007000000070000021
:102bf40000700000007000000070000000f0ff0092
:102c040001f0ff0001f0ff000100000000000000df
:102c140000000000000000000000000000000000b0
:102c240000000000000000000000000000000000a0
:102c34000000000000000000000000000000000090
:102c44000000000000000000000000000000000080
:102c5400000000000000000000f0ff0001f0ff0091
:102c640001f0ff000170000000700000007000001f
:102c74000070000000700000007000000070000090
:102c840000f0ff0000f0ff0000f0ff000070000003
:102c94000070000000700000007000000070000070
:102ca4000070000000700000007000000070000060
:102cb40000700000000000000000000000000000a0
:102cc4000000000000000000000000000000000000
:102cd40000000000000000000000000000000000f0
:102ce40000000000000000000000000000000000e0
:102cf40000000000000000000000000000000000d0
:102d0400000000000000fe0000c0ff0003e0ff0020
:102d140003f0010003780000003c0000001c0000e8
:102d2400001c0000000e0000000e0000000efc005d
:102d3400030efc00030efc00030e8000030e800053
:102d4400031e8000031c8000033c80000378800085
:102d540003f8810003f0ff0003c0ff0003007f00bd
:102d6400000000000000000000000000000000005f
:102d7400000000000000000000000000000000004f
:102d8400000000000000000000000000000000003f
:102d9400000000000000000000000000000000002f
:102da400000000000000000000000000000000001f
:102db400001c8000031c8000031c8000031c800096
:102dc400031c8000031c8000031c8000031c800083
:102dd400031c800003fcff0003fcff0003fcff0056
:102de400031c8000031c8000031c8000031c800063
:102df400031c8000031c8000031c8000031c800053
:102e0400031c8000031c8000031c800003000000de
:102e140000000000000000000000000000000000ae
:102e2400000000000000000000000000000000009e
:102e3400000000000000000000000000000000008e
:102e4400000000000000000000000000000000007e
:102e540000000000000000000000000000f8ff0077
:102e640000f8ff0000f8ff00000007000000070062
:102e74000000070000000700000007000000070032
:102e84000000070000000700000007000000070022
:102e94000000070000000700000007000000070012
:102ea40000000700000007000000070000f8ff0012
:102eb40000f8ff0000f8ff00000000000000000020
:102ec40000000000000000000000000000000000fe
:102ed40000000000000000000000000000000000ee
:102ee40000000000000000000000000000000000de
:102ef40000000000000000000000000000000000ce
:102f0400000000000000000000f87f0000f87f00cf
:102f140000f87f00000070000000700000007000e6
:102f240000007000000070000000700000007000dd
:102f340000007000000070000000700000007000cd
:102f440000007000000070000000700000007000bd
:102f54000008780000383c0000f83f0000f01f0033
:102f640000e0070000000000000000000000000076
:102f7400000000000000000000000000000000004d
:102f8400000000000000000000000000000000003d
:102f9400000000000000000000000000000000002d
:102fa400000000000000000000000000000000001d
:102fb400000000000038c0000138e0000138f000d3
:102fc400003878000038380000381c0000381e0033
:102fd40000380e000038070000b8030000f80300b2
:102fe40000f8010000b8030000b8070000380f0023
:102ff40000380e0000381e0000383c00003878000d
:10300400003870000038f0000038e0000138c000db
:1030140003000000000000000000000000000000a9
:10302400000000000000000000000000000000009c
:10303400000000000000000000000000000000008c
:10304400000000000000000000000000000000007c
:10305400000000000000000000000000000000006c
:10306400007000000070000000700000007000009c
:10307400007000000070000000700000007000008c
:10308400007000000070000000700000007000007c
:10309400007000000070000000700000007000006c
:1030a400007000000070000000700000007000005c
:1030b40000f0ff0001f0ff0001f0ff00010000003c
:1030c40000000000000000000000000000000000fc
:1030d40000000000000000000000000000000000ec
:1030e40000000000000000000000000000000000dc
:1030f40000000000000000000000000000000000cc
:10310400000000000000000000000000003cc000bf
:10311400033cc000037ce000036c6000036c6000af
:1031240003ec700003cc300003cc390003cc19004d
:10313400038c1900078c1f00070c0f00070c0f00ed
:10314400070c0f00070e0600070e0000070e000014
:10315400070e0000070e0000070e0000070e000017
:10316400070e0000070e000007000000000000002a
:10317400000000000000000000000000000000004b
:10318400000000000000000000000000000000003b
:10319400000000000000000000000000000000002b
:1031a400000000000000000000000000000000001b
:1031b4000000000000000000003c8000037c800050
:1031c400037c800003fc800003fc800003dc81009e
:1031d40003dc810003dc8300039c8300039c8700e1
:1031e400031c8700031c8f00031c8e00031c9e001d
:1031f400031c9c00031c9c00031cb800031cb800a7
:10320400031cf000031cf000031ce000031ce0009e
:10321400031cc000030000000000000000000000c8
:10322400000000000000000000000000000000009a
:10323400000000000000000000000000000000008a
:10324400000000000000000000000000000000007a
:10325400000000000000000000000000000000006a
:103264000000000000801f0000e07f0000f0ff006d
:1032740000f8f0000138c000031c8000031c80002b
:10328400031e0000070e0000070e0000070e0000da
:10329400070e0000070e0000070e0000070e0000d6
:1032a400070e8000071c8000031c8000033cc00044
:1032b40001f8f00001f0ff0000e07f0000801f0033
:1032c40000000000000000000000000000000000fa
:1032d40000000000000000000000000000000000ea
:1032e40000000000000000000000000000000000da
:1032f40000000000000000000000000000000000ca
:1033040000000000000000000000000000000000b9
:1033140000f81f0000f87f0000f8ff000038f000fc
:103324000138c0000338800003388000033880006f
:1033340003388000033880000338c0000138f000ef
:1033440001f8ff0000f87f0000f80f0000380000cb
:103354000038000000380000003800000038000089
:1033640000380000003800000038000000000000b1
:103374000000000000000000000000000000000049
:103384000000000000000000000000000000000039
:103394000000000000000000000000000000000029
:1033a4000000000000000000000000000000000019
:1033b40000000000000000000000000000801f006a
:1033c40000e07f0000f0ff0000f8f0000138c000ca
:1033d400031c8000031c8000031e0000070e000075
:1033e400070e0000070e0000070e0000070e000085
:1033f400070e0000070e0000070e8000071c800067
:10340400031c8000033cc00001f8f00001f0ff0041
:1034140000e07f0000c01f000000070000000f0054
:1034240000001e000400fe000f00fc000700f00076
:103434000300000000000000000000000000000085
:103444000000000000000000000000000000000078
:103454000000000000000000000000000000000068
:10346400000000000000000000f80f0000f83f001a
:1034740000f87f000038f8000038f0000038e00061
:103484000038e0000038e0000038f0000038780030
:1034940000f83f0000f81f0000f80f0000381e007d
:1034a40000383c00003838000038780000387000dc
:1034b4000038f0000038e0000038e0000138c000b7
:1034c4000138c000030000000000000000000000fc
:1034d40000000000000000000000000000000000e8
:1034e40000000000000000000000000000000000d8
:1034f40000000000000000000000000000000000c8
:1035040000000000000000000000000000000000b7
:103514000000000000803f0000e0ff0000f8ff0012
:103524000078c000001c0000001c0000001c00000b
:10353400003c00000078000000f8010000f00700e3
:1035440000c01f0000007e000000f8000000e00042
:103554000100c0000100c0000100c0000100e00043
:10356400010cf00000fcff0000fc3f0000f00f0025
:103574000000000000000000000000000000000047
:103584000000000000000000000000000000000037
:103594000000000000000000000000000000000027
:1035a4000000000000000000000000000000000017
:1035b4000000000000000000000000000000000007
:1035c40000feff0003feff0003feff0003000700f0
:1035d40000000700000007000000070000000700cb
:1035e40000000700000007000000070000000700bb
:1035f40000000700000007000000070000000700ab
:10360400000007000000070000000700000007009a
:103614000000070000000700000007000000000091
:103624000000000000000000000000000000000096
:103634000000000000000000000000000000000086
:103644000000000000000000000000000000000076
:103654000000000000000000000000000000000066
:10366400000000000000000000000000001c8000ba
:10367400031c8000031c8000031c8000031c8000ca
:10368400031c8000031c8000031c8000031c8000ba
:10369400031c8000031c8000031c8000031c8000aa
:1036a400031c8000031c8000031c8000031c80009a
:1036b400031cc000033cc0000178e00001f0ff00df
:1036c40000e07f0000c01f000000000000000000b8
:1036d40000000000000000000000000000000000e6
:1036e40000000000000000000000000000000000d6
:1036f40000000000000000000000000000000000c6
:1037040000000000000000000000000000000000b5
:103714000000000000000000000e00000e1e00006b
:103724000e1e00000f1c0000071c0000073c800058
:1037340007388000033880000378c0000370c0009d
:103744000170c00001f0e00000e0e00000e0e000f3
:1037540000e0710000c0710000c0710000c03b00b7
:1037640000803b0000803b0000801f0000001f0021
:1037740000001f0000000000000000000000000026
:103784000000000000000000000000000000000035
:103794000000000000000000000000000000000025
:1037a4000000000000000000000000000000000015
:1037b4000000000000000000000000000000000005
:1037c40000000000000e0000070e0000070e0000bd
:1037d400070e0000070e0000070e0000070c000093
:1037e400031c0000031c8600031c8600031c8f00be
:1037f400031c8f00031c8f00031c9f00039c990073
:10380400039c9900039cb90003d8b90001d8b00007
:1038140001f8f00001f8f0000178e0000178e00020
:103824000100000000000000000000000000000093
:103834000000000000000000000000000000000084
:103844000000000000000000000000000000000074
:103854000000000000000000000000000000000064
:103864000000000000000000000000000000000054
:10387400001e8000073cc0000338c0000178e0004f
:1038840001f0f00000e0700000e0790000c03f00ab
:1038940000c01f0000801f0000000f0000000f0088
:1038a40000801f0000c03f0000c03d0000e0790020
:1038b40000f0f0000070f0000078e000013cc0006f
:1038c400033cc000031e8000070f00000f0000002f
:1038d40000000000000000000000000000000000e4
:1038e40000000000000000000000000000000000d4
:1038f40000000000000000000000000000000000c4
:1039040000000000000000000000000000000000b3
:10391400000000000000000000000000000f800014
:10392400071ec000031ec000033ce000013ce00091
:103934000178e0000078f00000f0700000e038004a
:1039440000e0390000c01d0000c01d0000800f0011
:1039540000800f00000007000000070000000700bf
:103964000000070000000700000007000000070037
:103974000000070000000700000000000000000035
:103984000000000000000000000000000000000033
:103994000000000000000000000000000000000023
:1039a4000000000000000000000000000000000013
:1039b4000000000000000000000000000000000003
:1039c400000000000000000000fcff0003fcff00fa
:1039d40003fcff000300c0000100e0000000f00051
:1039e400000070000000380000003c0000001c00d3
:1039f40000000e0000000f0000000700008003001c
:103a040000c0030000c0010000e0000000f000005e
:103a1400007000000038000000fcff0003fcff0001
:103a240003fcff0003000000000000000000000091
:103a34000000000000000000000000000000000082
:103a44000000000000000000000000000000000072
:103a54000000000000000000000000000000000062
:103a640000000000000000000000000000c07f0013
:103a740000c07f0000c07f0000c0010000c0010042
:103a840000c0010000c0010000c0010000c001002e
:103a940000c0010000c0010000c0010000c001001e
:103aa40000c0010000c0010000c0010000c001000e
:103ab40000c0010000c0010000c0010000c00100fe
:103ac40000c0010000c0010000c0010000c00100ee
:103ad40000c0010000c0010000c0010000c00100de
:103ae40000c07f0000c07f0000c07f000000000015
:103af40000000000000000000000000000000000c2
:103b040000000000000000000000000000000000b1
:103b140000000000000000000038000000700000f9
:103b2400007000000070000000e0000000e00000f1
:103b340000c0010000c001000080010000800300fb
:103b440000800300000007000000070000000e00d2
:103b540000000e0000000e0000001c0000001c000d
:103b64000000380000003800000038000000700039
:103b7400000070000000e0000000e0000000c00051
:103b84000000c0000100c00001008000030000002c
:103b94000000000000000000000000000000000021
:103ba4000000000000000000000000000000000011
:103bb4000000000000000000000000000000000001
:103bc4000000000000e03f0000e03f0000e03f0094
:103bd4000000380000003800000038000000380001
:103be40000003800000038000000380000003800f1
:103bf40000003800000038000000380000003800e1
:103c040000003800000038000000380000003800d0
:103c140000003800000038000000380000003800c0
:103c240000003800000038000000380000003800b0
:103c3400000038000000380000e03f0000e03f00d2
:103c440000e03f0000000000000000000000000051
:103c54000000000000000000000000000000000060
:103c64000000000000000000000000000000000050
:103c740000000000000000000000070000800f00aa
:103c840000800d0000c01d0000c0380000e03800b6
:103c940000707000007070000038e000001cc0006c
:103ca400011cc00001000000000000000000000032
:103cb4000000000000000000000000000000000000
:103cc40000000000000000000000000000000000f0
:103cd40000000000000000000000000000000000e0
:103ce40000000000000000000000000000000000d0
:103cf40000000000000000000000000000000000c0
:103d040000000000000000000000000000000000af
:103d1400000000000000000000000000000000009f
:103d2400000000000000000000000000000000008f
:103d3400000000000000000000000000000000007f
:103d4400000000000000000000000000000000006f
:103d5400000000000000000000000000000000005f
:103d6400000000000000000000000000000000004f
:103d7400000000000000000000000000000000003f
:103d8400000000000000000000000000000000002f
:103d940000ffff000fffff000fffff000f000000f8
:103da400000000000000000000000000000000000f
:103db40000000000000000000000000000000000ff
:103dc400000000000000000000f0010000e003001b
:103dd4000080070000000f00000000000000000049
:103de40000000000000000000000000000000000cf
:103df40000000000000000000000000000000000bf
:103e040000000000000000000000000000000000ae
:103e1400000000000000000000000000000000009e
:103e2400000000000000000000000000000000008e
:103e3400000000000000000000000000000000007e
:103e4400000000000000000000000000000000006e
:103e5400000000000000000000000000000000005e
:103e6400000000000000000000000000000000004e
:103e7400000000000000000000000000000000003e
:103e8400000000000000000000000000000000002e
:103e940000e00f0000f83f0000f87f000018f00079
:103ea4000000e0000000e0000000e00000c0ff00af
:103eb40000f0ff0000f8ff00003ce000001ce00000
:103ec400001ce000001cf000003cfc0000f8ff00b7
:103ed40000f8ef0000e0e300000000000000000034
:103ee40000000000000000000000000000000000ce
:103ef40000000000000000000000000000000000be
:103f040000000000000000000000000000000000ad
:103f1400000000000000000000000000000000009d
:103f240000380000003800000038000000380000ad
:103f340000380000003800000038000000383e005f
:103f440000b8ff0000f8ff0001f8e10001f8c0002c
:103f54000178800003388000033880000338800033
:103f64000338800003388000033880000338c00021
:103f74000138c0000178f00000f8ff0000f87f006d
:103f840000e01f000000000000000000000000002e
:103f9400000000000000000000000000000000001d
:103fa400000000000000000000000000000000000d
:103fb40000000000000000000000000000000000fd
:103fc40000000000000000000000000000000000ed
:103fd40000000000000000000000000000000000dd
:103fe40000000000000000000000fe000080ff0050
:103ff40001c0ff0001e0030001f0000000700000b8
:1040040000380000003800000038000000380000cc
:1040140000380000003800000078000000f00000c4
:1040240000f0010001e0ff0001c0ff000100ff00fb
:10403400000000000000000000000000000000007c
:10404400000000000000000000000000000000006c
:10405400000000000000000000000000000000005c
:10406400000000000000000000000000000000004c
:1040740000000000000000000000c0000100c000bb
:104084000100c0000100c0000100c0000100c00028
:104094000100c0000180ff0001e0ff0001f0ff000b
:1040a40001f0c0000138c0000138c000011cc0008c
:1040b400011cc000011cc000011cc000011cc00088
:1040c400011cc000011ce0000138f0000178fc0074
:1040d40001f8df0001f0cf0001c0c70001000000bb
:1040e40000000000000000000000000000000000cc
:1040f40000000000000000000000000000000000bc
:1041040000000000000000000000000000000000ab
:10411400000000000000000000000000000000009b
:10412400000000000000000000000000000000008b
:10413400000000000000000000000000000000007b
:1041440000801f0000e03f0000f07f000078f000d6
:104154000038e0000018c000011cc00001fcff0092
:1041640001fcff0001fcff00011c0000001c00001a
:10417400003c00000038000000f8c00000f0ff0020
:1041840000e0ff0000803f0000000000000000008d
:10419400000000000000000000000000000000001b
:1041a400000000000000000000000000000000000b
:1041b40000000000000000000000000000000000fb
:1041c40000000000000000000000000000000000eb
:1041d4000000f8000300fe000700ff0007000f00c6
:1041e40006800700008003000080030000800300b5
:1041f4000080030000feff0003feff0003feff003b
:10420400038003000080030000800300008003009b
:10421400008003000080030000800300008003008e
:10422400008003000080030000800300008003007e
:1042340000800300000000000000000000000000f7
:10424400000000000000000000000000000000006a
:10425400000000000000000000000000000000005a
:10426400000000000000000000000000000000004a
:10427400000000000000000000000000000000003a
:10428400000000000000000000000000000000002a
:1042940000000000000000000080ff0007e0ff00b5
:1042a40007f0ff0007f0f0000078c0000138c000fc
:1042b4000138c0000138e00001f0f00000f0ff0018
:1042c40000f07f0000b01f0000380000003800003c
:1042d4000078000000f87f0000f0ff0001f0ff000c
:1042e4000338c000031c8000031c8000033ce00072
:1042f40003fcff0001f8ff0000e03f0000000000a5
:1043040000000000000000000000000000000000a9
:104314000000000000000000000000000000000099
:104324000000000000000000003800000038000019
:104334000038000000380000003800000038000099
:104344000038000000383e0000b87f0000f8ff008d
:1043540000f8e10001f8c0000178c0000138c00095
:104364000138c0000138c0000138c0000138c00065
:104374000138c0000138c0000138c0000138c00055
:104384000138c0000138c0000138c000010000003d
:104394000000000000000000000000000000000019
:1043a4000000000000000000000000000000000009
:1043b40000000000000000000000000000000000f9
:1043c40000000000000000000000000000000000e9
:1043d40000000e0000001f0000001f0000001f006e
:1043e40000000e00000000000000000000000000bb
:1043f40000f00f0000f00f0000f00f0000000e00ae
:1044040000000e0000000e0000000e0000000e0070
:1044140000000e0000000e0000000e0000000e0060
:1044240000000e0000000e0000000e0000f8ff0067
:1044340001f8ff0001f8ff00010000000000000087
:104444000000000000000000000000000000000068
:104454000000000000000000000000000000000058
:104464000000000000000000000000000000000048
:1044740000000000000000000000000000007000c8
:104484000000f8000000f8000000f80000007000d0
:1044940000000000000000000000000000f87f00a1
:1044a40000f87f0000f87f0000007000000070003a
:1044b4000000700000007000000070000000700038
:1044c4000000700000007000000070000000700028
:1044d4000000700000007000000070000000700018
:1044e4000000700000007000000070000000380040
:1044f400000c3c0000fc1f0000fc0f0000f803004f
:1045040000000000000000000000000000000000a7
:104514000000000000000000000000000000000097
:10452400000000000000000000000000003800004f
:104534000038000000380000003800000038000097
:1045440000380000003800000038c0000338e000e4
:104554000138f0000038780000383c0000381e00b4
:1045640000380f0000b8070000f8030000b8070087
:1045740000380f0000381e0000381e0000383c00d0
:10458400003878000038f0000038e0000138c0003e
:104594000300000000000000000000000000000014
:1045a4000000000000000000000000000000000007
:1045b40000000000000000000000000000000000f7
:1045c40000000000000000000000000000000000e7
:1045d400000000000000000000f00f0000f00f00d9
:1045e40000f00f0000000e0000000e0000000e009e
:1045f40000000e0000000e0000000e0000000e007f
:1046040000000e0000000e0000000e0000000e006e
:1046140000000e0000000e0000000e0000000e005e
:1046240000000e0000000e0000000e0000000e004e
:1046340000f8ff0001f8ff0001f8ff00010000008e
:104644000000000000000000000000000000000066
:104654000000000000000000000000000000000056
:104664000000000000000000000000000000000046
:104674000000000000000000000000000000000036
:104684000000000000000000000000000000000026
:104694000000000000000000000000000000000016
:1046a400009cc30001dce70003fcf700077c3e002c
:1046b400073c1e00073c1e00071c0e00071c0e00d2
:1046c400071c0e00071c0e00071c0e00071c0e0022
:1046d400071c0e00071c0e00071c0e00071c0e0012
:1046e400071c0e00071c0e0007000000000000005d
:1046f40000000000000000000000000000000000b6
:1047040000000000000000000000000000000000a5
:104714000000000000000000000000000000000095
:104724000000000000000000000000000000000085
:104734000000000000000000000000000000000075
:1047440000000000000000000000000000383e00ef
:1047540000b8ff0000f8ff0000f8e10001f8c00015
:104764000178c0000138c0000138c0000138c00021
:104774000138c0000138c0000138c0000138c00051
:104784000138c0000138c0000138c0000138c00041
:104794000138c0000100000000000000000000001b
:1047a4000000000000000000000000000000000005
:1047b40000000000000000000000000000000000f5
:1047c40000000000000000000000000000000000e5
:1047d40000000000000000000000000000000000d5
:1047e40000000000000000000000000000000000c5
:1047f400000000000000000000801f0000e07f00b7
:1048040000f0ff0000f8f0000138c0000138c000db
:10481400031c8000031c8000031c8000031c800018
:10482400031c8000031c8000033cc0000138c0004e
:1048340001f8f00001f0ff0000e07f0000801f009d
:104844000000000000000000000000000000000064
:104854000000000000000000000000000000000054
:104864000000000000000000000000000000000044
:104874000000000000000000000000000000000034
:104884000000000000000000000000000000000024
:104894000000000000000000000000000000000014
:1048a4000000000000383e0000b8ff0000f8ff00e0
:1048b40001f8e10001f8c0000178800003388000ad
:1048c40003388000033880000338800003388000f8
:1048d400033880000338c0000138c0000178f000bc
:1048e40000f8ff0000f87f0000f81f000038000007
:1048f40000380000003800000038000000380000d4
:104904000038000000380000000000000000000033
:104914000000000000000000000000000000000093
:104924000000000000000000000000000000000083
:104934000000000000000000000000000000000073
:104944000000000000000000000000000000000063
:104954000080bf0001e0ff0001f0ff0001f0e00073
:104964000138c0000138c000011cc000011cc00097
:10497400011cc000011cc000011cc000011cc000bf
:10498400011ce0000138f0000178fc0001f8ff0090
:1049940001f0cf0001c0c7000100c0000100c00049
:1049a4000100c0000100c0000100c0000100c000ff
:1049b4000100c00001000000000000000000000031
:1049c40000000000000000000000000000000000e3
:1049d40000000000000000000000000000000000d3
:1049e40000000000000000000000000000000000c3
:1049f40000000000000000000000000000707c00c7
:104a04000070fe000170ff0001f0c30003f081009c
:104a140003f0800003708000037000000070000049
:104a240000700000007000000070000000700000c2
:104a340000700000007000000070000000700000b2
:104a440000700000000000000000000000000000f2
:104a54000000000000000000000000000000000052
:104a64000000000000000000000000000000000042
:104a74000000000000000000000000000000000032
:104a84000000000000000000000000000000000022
:104a94000000000000000000000000000000000012
:104aa400000000000000000000803f0000e07f00e4
:104ab40000f07f000078600000380000003800003b
:104ac4000078000000f0030000e00f0000803f00c9
:104ad40000007c000000f0000000e0000000e000a6
:104ae4000018f00000f87f0000f83f0000e00f001d
:104af40000000000000000000000000000000000b2
:104b040000000000000000000000000000000000a1
:104b14000000000000000000000000000000000091
:104b24000000000000000000000000000000000081
:104b340000000000000000000000000000800100f0
:104b440000c0010000c0010000c0010000c001005d
:104b540000c0010000feff0001feff0001feff0097
:104b640001c0010000c0010000c0010000c001003c
:104b740000c0010000c0010000c0010000c001002d
:104b840000c0010000c0010000c0010000c0070017
:104b94000180ff000100ff000100fe000000000092
:104ba4000000000000000000000000000000000001
:104bb40000000000000000000000000000000000f1
:104bc40000000000000000000000000000000000e1
:104bd40000000000000000000000000000000000d1
:104be40000000000000000000000000000000000c1
:104bf40000000000000000000000000000000000b1
:104c04000038c0000138c0000138c0000138c000bd
:104c14000138c0000138c0000138c0000138c000ac
:104c24000138c0000138c0000138c0000138c0009c
:104c34000138e0000138f0000178f80001f0ff00cd
:104c440001f0df0001c0c700010000000000000007
:104c54000000000000000000000000000000000050
:104c64000000000000000000000000000000000040
:104c74000000000000000000000000000000000030
:104c84000000000000000000000000000000000020
:104c94000000000000000000000000000000000010
:104ca400000000000000000000000000001c0000e4
:104cb400073c0000073c8000033880000378c000f4
:104cc4000370c0000170c00001f0e00000e0e000eb
:104cd40000e0e00000c0710000c0710000c03300bb
:104ce40000803b0000803b0000001b0000001f0010
:104cf40000000f00000000000000000000000000a1
:104d0400000000000000000000000000000000009f
:104d1400000000000000000000000000000000008f
:104d2400000000000000000000000000000000007f
:104d3400000000000000000000000000000000006f
:104d4400000000000000000000000000000000005f
:104d54000000000000000000000e8000030e800030
:104d6400030e8000030e8000030e8700030e8700ed
:104d7400030e8f00030c8f00039c8d00039c9d0089
:104d8400019c9d00019c990001dcb80001d8b80089
:104d940001d8b00001f8f0000178f0000178e000db
:104da40001000000000000000000000000000000fe
:104db40000000000000000000000000000000000ef
:104dc40000000000000000000000000000000000df
:104dd40000000000000000000000000000000000cf
:104de40000000000000000000000000000000000bf
:104df40000000000000000000000000000000000af
:104e040000000000003cc0000378e0000170f000e6
:104e140000e0700000e0790000c03d0000801f0049
:104e240000801f0000000f0000801f0000801f0092
:104e340000c0390000e0790000f0f0000070e000ec
:104e44000078e000013cc000031e80000700000061
:104e5400000000000000000000000000000000004e
:104e6400000000000000000000000000000000003e
:104e7400000000000000000000000000000000002e
:104e8400000000000000000000000000000000001e
:104e9400000000000000000000000000000000000e
:104ea40000000000000000000000000000000000fe
:104eb400001c0000073c0000073880000338800015
:104ec4000378c0000370c0000170c00001e0e0007e
:104ed40000e0e00000e0610000c0710000c071006b
:104ee40000803b0000803b0000801b0000001f008e
:104ef40000000f0000000e0000000f00000007007b
:104f04000080070000c0030000fe010000fe000056
:104f1400003e00000000000000000000000000004f
:104f2400000000000000000000000000000000007d
:104f3400000000000000000000000000000000006d
:104f4400000000000000000000000000000000005d
:104f540000000000000000000000000000f8ff0056
:104f640001f8ff0001f8ff000100e00000007000fc
:104f7400000038000000380000001c0000000e0093
:104f840000000700008003000080030000c001004f
:104f940000e000000070000000f8ff0003f8ff00cc
:104fa40003f8ff0003000000000000000000000000
:104fb40000000000000000000000000000000000ed
:104fc40000000000000000000000000000000000dd
:104fd40000000000000000000000000000000000cd
:104fe4000000000000000000000000000000f800c5
:104ff4000000fc000000fe0000001f00000007008d
:105004000000070000000700000007000000070080
:1050140000000700000007000000070000800700f0
:1050240000f803000078000000f8030000c003004b
:105034000000070000000700000007000000070050
:105044000000070000000700000007000000070040
:10505400000007000000070000000f0000001f0010
:105064000000fe000000fc000000f800000000004a
:10507400000000000000000000000000000000002c
:10508400000000000000000000000700000007000e
:1050940000000700000007000000070000000700f0
:1050a40000000700000007000000070000000700e0
:1050b40000000700000007000000070000000700d0
:1050c40000000700000007000000070000000700c0
:1050d40000000700000007000000070000000700b0
:1050e40000000700000007000000070000000700a0
:1050f4000000070000000700000007000000070090
:10510400000007000000070000000700000007007f
:10511400000007000000070000000000000000007d
:10512400000000000000000000000000000000007b
:10513400000000000000000000000000000000006b
:105144000000000000f0010000f0030000f0070080
:1051540000800f0000000f0000000e0000000e0091
:1051640000000e0000000e0000000e0000000e0003
:1051740000000e0000001e000000fc000100e00022
:105184000100fc0001001c0000000e0000000e00e5
:1051940000000e0000000e0000000e0000000e00d3
:1051a40000000e0000000e0000000e0000000e00c3
:1051b40000000f0000800f0000f0070000f0030063
:1051c40000f00100000000000000000000000000ea
:1051d40000000000000000000000000000000000cb
:1051e40000000000000000000000000000000000bb
:1051f40000000000000000000000000000000000ab
:10520400000000000000000000000000000000009a
:10521400000000000000000000000000000000008a
:1052240000f0000000fc030007fc0700071e8f00cd
:10523400070efe00030efc000300f0000000000057
:10524400000000000000000000000000000000005a
:10525400000000000000000000000000000000004a
:10526400000000000000000000000000000000003a
:1052740000000000005c0000002c00008000000022
:105284000008000002000000800000000000000090
:020000040000fa
:1052940000000600041028008439880030e7b700b5
:1052a4003107a800913988000607ab00feff3200e1
:1052b400050024008639800006826200fdff3a0062
:1052c4003107a9000000060000000600889fbe0008
:1052d40031408800424088002440880015408800fe
:1052e400e3a38800e00f50001a003a0004052000f0
:1052f40054408800041e20006440880004022000fa
:10530400f4a388008500200005a4880014a4880064
:10531400a400200024a488005500200035a488009f
:1053240044a4880024002000844088001400200045
:10533400744088004487a800f51f2000303a80009c
:105344008082620004a0280005027200343a8800ba
:105354009c003700e10f500021003a00040a2000ad
:1053640054408800041e2000644088000502200088
:10537400f5a388008601200006a4880015a48800ef
:10538400a500200025a488005600200036a488002b
:1053940045a48800840f5100050032001400200049
:1053a400844088000002eb00744088000400370049
:1053b40024002000844088001400200074408800e9
:1053c4004487a800f51f2000333a800083826200de
:1053d40004c0250005027200343a880079003700c1
:1053e400e20f500021003a000414200054408800c9
:1053f400041e20006440880005022000f5a38800f4
:105404008601200006a4880015a48800a5002000b9
:1054140025a488005600200036a4880045a48800ee
:10542400840f5100050032001400200084408800dd
:105434000002eb00744088000400370024002000c0
:105444008440880014002000744088004487a80029
:10545400f51f2000343a8000848262000400230097
:1054640005027200343a880056003700e30f5000fa
:105474001c003a000428200054408800041e200028
:105484006440880004012000f4a38800040620007e
:1054940004a488000403200014a48800a4002000ad
:1054a40024a488002400200034a488000002eb0017
:1054b40044a48800140020008440880014022000c2
:1054c400744088004487a800f51f2000363a800005
:1054d400868262000480210005027200343a88004a
:1054e40038003700e40f50001b003a000428200065
:1054f40054408800041e20006440880004012000f9
:10550400f4a388000406200004a4880004032000f7
:1055140014a48800a400200024a4880024002000ef
:1055240034a488007f02420044a488000002eb00f7
:1055340084408800744088004487a800f51f200038
:10554400373a8000878262000460210005027200fd
:10555400343a88001b003700e50f500019003a0068
:1055640004322000544088008425200064408800d0
:1055740004012000f4a388000406200004a4880089
:105584000403200014a488006802520024a48800a4
:105594002400200034a488007f02420044a4880030
:1055a4001400200084408800744088004487a800c8
:1055b400f41f2000383a80000802620004c0a000f2
:1055c400343a8800f4f32f0040742000100862007d
:1055d400f57f2000364080000503630004802f001f
:1055e400a33880008303620087037300a738880010
:1055f400a738800007836200e838800088036200cf
:1056040087037300e7388800e03880000083620075
:10561400a33880008303620087037300a7388800df
:105624004640800005036300b838800088036200a8
:1056340087037300b7388800b038800000836200a5
:10564400f33880008303620087037300f73888000f
:10565400f738800007836200b8388000880362004e
:1056640087037300b7388800273980000700a0003b
:1056740096ff2f0006806300203988003ea7ef00c4
:10568400f0a3800006a4800012a4800080034300dd
:105694008283430051408000818343008140800025
:1056a40081834300858363000339800083006200a3
:1056b400818073000139880021a4800037a4800010
:1056c40043a4800001844300030444006940800033
:1056d4000904440079408000090444008502640000
:1056e40018398000080262000482720014398800ac
:1056f40026e7a9002647a90026c7a9002627a8004f
:105704002607a80026a7a9002687a90001c24300ee
:10571400834142001440800084c1410083427800e8
:10572400f4722000054a7800f872200018447800ca
:1057340093722000884978000042430002414200ed
:10574400244080000441410082427800e472200039
:10575400054a7800e872200018447800837220001b
:105764008849780081427800c4722000054a780094
:105774002ae7b700074078002de7b7000642780013
:10578400b3722000844978002667a9002727a8005f
:105794002707a800e4a38000e10f52000b003a00a1
:1057a400f4f12f0045702000950a6200243880002f
:1057b400040eb200f5f12f002639800086826200c3
:1057c40085027200253988003a003700e20f520042
:1057d4000d003a00253880000550a000f4f32f0096
:1057e400848362002738880024388000040eb200c5
:1057f400f5f12f002839800088826200850272004a
:10580400253988002b003700e40f52000d003a00c0
:10581400243880000450a1000460a0000470a1009a
:105824002438880024388000040eb200f5f12f00db
:105834002039800080826200850272002539880048
:105844001c003700e80f52000c003a002438800096
:105854000406b3000470a1002438880024388000b2
:10586400040eb200f5f12f00233980008382620018
:1058740085027200253988000e003700f00f5200af
:105884000c003a00f4f92f0025388000050262006c
:105894000470a0002438880024388000040eb2006c
:1058a400f5f12f002639800086826200850272009d
:1058b4002539880005e7a80000e82300010020003e
:1058c4001e320200000000004f04be00000006006b
:1058d400004378008002eb000502780013002000ea
:1058e400021e2000012820003000200077fe07005f
:1058f4006000b80067fe0700f101200010002000de
:1059040064fe070000000600004378008002eb00fc
:105914000502780013002000021e20000128200048
:105924003000200069fe07006000b80059fe07003f
:1059340001102f001000200056fe07000000060092
:10594400004378008002eb00050278001300200079
:10595400021e200001282000300020005bfe07000a
:10596400a494220094a48800a4a488000867a90031
:10597400a080a900000006003600f800809fbe0049
:10598400829fbe00849fbe00869fbe000a87ab0034
:1059940006003200a4a48000040001000002eb0011
:1059a400a44088000a87a900080037000a67ab00f2
:1059b4000600320094a4800004000100a44080008a
:1059c4000402e800a44088000a67a9009080a900a6
:1059d4004f03be004f02be004f01be004f00be0089
:1059e4003600f900004006000627ab00feff3a002f
:1059f40000388800040025001438880000000000e6
:105a04000627ab00feff3a00013888000410250089
:105a14001438880000000000000006000627ab00d0
:105a2400feff3a0000a7ef000400250014388800a8
:105a3400000000000627ab00feff3a000027ef003d
:105a44000410250014388800000000000627ab006d
:105a5400feff3a00c4a9220004388800042025006f
:105a640014388800000000000627ab00feff3a004f
:105a74000027ef000480250014388800000000008f
:105a84000627ab00feff3a00344080004c23dd00c3
:105a94004540800086827200053888004422de007a
:105aa40005902500848272001538880000000000eb
